S01A000054656D7072656174757265436F6E74726F6C2E737265639B
S11300000C942A000C9447000C9447000C9447006D
S11300100C9447000C9447000C9447000C94470040
S11300200C9447000C9447000C9447000C94470030
S11300300C9447000C9447000C9447000C94470020
S11300400C9447000C9447000C9447000C94470010
S11300500C94470011241FBECFE5D8E0DEBFCDBF0E
S113006010E0A0E6B0E0E0E1FEE002C005900D92F1
S1130070A836B107D9F710E0A8E6B0E001C01D9298
S1130080A836B107E1F70E9494050C9406070C9476
S113009000003E9A3F9A379A329A319A3C9A0895D0
S11300A0369A349BFECF84B190E045B1342F20E0E2
S11300B0822B932B0895843409F471C0853448F459
S11300C0823499F1833408F04DC0813409F083C03F
S11300D00FC0823651F1833620F4813609F07BC09B
S11300E007C0833609F43EC0843609F074C057C093
S11300F0413069F42AB381E090E0AC0102C0440FBE
S1130100551F6A95E2F7BA01622B6ABB08952AB3B8
S113011081E090E0AC0102C0440F551F6A95E2F7FC
S1130120BA01609562236ABB0895413069F427B32C
S113013081E090E0AC0102C0440F551F6A95E2F7DC
S1130140BA01622B67BB089527B381E090E0AC014C
S113015002C0440F551F6A95E2F7BA016095622305
S113016067BB0895413069F424B381E090E0AC01A9
S113017002C0440F551F6A95E2F7BA01622B64BBB3
S1130180089524B381E090E0AC0102C0440F551FF0
S11301906A95E2F7BA016095622364BB0895413021
S11301A069F421B381E090E0AC0102C0440F551F13
S11301B06A95E2F7BA01622B61BB089521B381E02D
S11301C090E0AC0102C0440F551F6A95E2F7BA01F2
S11301D06095622361BB0895843409F471C0853449
S11301E048F4823499F1833408F04DC0813409F025
S11301F083C00FC0823651F1833620F4813609F072
S11302007BC007C0833609F43EC0843609F074C04D
S113021057C0413069F42BB381E090E0AC0102C0D7
S1130220440F551F6A95E2F7BA01622B6BBB089520
S11302302BB381E090E0AC0102C0440F551F6A95D6
S1130240E2F7BA01609562236BBB0895413069F40B
S113025028B381E090E0AC0102C0440F551F6A95B9
S1130260E2F7BA01622B68BB089528B381E090E0FD
S1130270AC0102C0440F551F6A95E2F7BA016095BC
S1130280622368BB0895413069F425B381E090E0AE
S1130290AC0102C0440F551F6A95E2F7BA01622B04
S11302A065BB089525B381E090E0AC0102C0440F22
S11302B0551F6A95E2F7BA016095622365BB0895FC
S11302C0413069F422B381E090E0AC0102C0440FF4
S11302D0551F6A95E2F7BA01622B62BB089522B3F7
S11302E081E090E0AC0102C0440F551F6A95E2F72B
S11302F0BA016095622362BB0895843409F43DC059
S1130300853440F48234F9F0833450F5813409F0B3
S113031040C00CC08236B9F0833618F48136C9F572
S113032005C08336E9F08436A1F527C02BB381E0FC
S113033090E0AC0102C0440F551F6A95E2F7BA0180
S113034062276BBB089528B381E090E0AC0102C042
S1130350440F551F6A95E2F7BA01622768BB0895F6
S113036025B381E090E0AC0102C0440F551F6A95AB
S1130370E2F7BA01622765BB089522B381E090E0F9
S1130380AC0102C0440F551F6A95E2F7BA01622717
S113039062BB0895843409F44EC0853440F4823439
S11303A031F18334B0F5813409F057C00EC0823680
S11303B0F1F0833620F4813609F04FC006C083364D
S11303C041F1843609F049C036C029B381E090E098
S11303D0062E02C0880F991F0A94E2F730E08223A8
S11303E0932302C0959587956A95E2F7089526B3FD
S11303F081E090E0062E02C0880F991F0A94E2F76C
S113040030E08223932302C0959587956A95E2F79D
S1130410089523B381E090E0062E02C0880F991F4F
S11304200A94E2F730E08223932302C095958795DE
S11304306A95E2F7089520B381E090E0062E02C0A9
S1130440880F991F0A94E2F730E08223932302C0B5
S1130450959587956A95E2F7089508958434D9F0BF
S1130460853438F4823499F0833498F48134A1F4D7
S11304700CC0823661F0833618F4813669F405C005
S1130480833639F0843641F406C06ABB089567BBED
S1130490089564BB089561BB08958434D9F085340C
S11304A038F4823499F0833498F48134A1F40CC084
S11304B0823661F0833618F4813669F405C08336D8
S11304C039F0843641F406C06BBB089568BB0895C7
S11304D065BB089562BB0895843409F1853438F40A
S11304E08234A9F08334B8F48134E1F40CC0823648
S11304F071F0833618F48136A9F405C0833659F0B7
S1130500843681F40CC08BB380958BBB089588B37B
S1130510809588BB089585B3809585BB089582B383
S1130520809582BB08958434D9F0853438F48234BC
S113053099F0833498F48134A9F40CC0823661F0C4
S1130540833618F4813671F405C0833639F0843665
S113055049F406C089B3089586B3089583B3089512
S113056080B3089508956295607F843451F1853491
S113057038F48234C1F08334E8F4813441F50CC09A
S1130580823689F0833618F4813609F505C083363E
S113059089F08436E1F415C08BB38F708BBB8BB3B9
S11305A0682B6BBB089588B38F7088BB88B3682BA6
S11305B068BB089585B38F7085BB85B3682B65BB15
S11305C0089582B38F7082BB82B3682B62BB089597
S11305D0843451F1853438F48234C1F08334E8F43E
S11305E0813441F50CC0823689F0833618F48136A3
S11305F009F505C0833689F08436E1F415C08BB360
S1130600807F8BBB8BB3682B6BBB089588B3807FD3
S113061088BB88B3682B68BB089585B3807F85BB8E
S113062085B3682B65BB089582B3807F82BB82B398
S1130630682B62BB0895843409F471C0853448F48E
S1130640823499F1833408F04DC0813409F083C0B9
S11306500FC0823651F1833620F4813609F07BC015
S113066007C0833609F43EC0843609F074C057C00D
S1130670413069F42BB381E090E0AC0102C0440F37
S1130680551F6A95E2F7BA01622B6BBB08952BB331
S113069081E090E0AC0102C0440F551F6A95E2F777
S11306A0BA01609562236BBB0895413069F428B3A5
S11306B081E090E0AC0102C0440F551F6A95E2F757
S11306C0BA01622B68BB089528B381E090E0AC01C5
S11306D002C0440F551F6A95E2F7BA016095622380
S11306E068BB0895413069F425B381E090E0AC0122
S11306F002C0440F551F6A95E2F7BA01622B65BB2D
S1130700089525B381E090E0AC0102C0440F551F69
S11307106A95E2F7BA016095622365BB089541309A
S113072069F422B381E090E0AC0102C0440F551F8C
S11307306A95E2F7BA01622B62BB089522B381E0A5
S113074090E0AC0102C0440F551F6A95E2F7BA016C
S11307506095622362BB089583E490E061E070E0F9
S113076041E050E00E94EC0083EF91E00197F1F743
S113077000C0000083E490E061E070E040E050E0FD
S11307800E94EC0083EF91E00197F1F700C00000B4
S11307900895CF93C82F682F62956F7083E490E01B
S11307A070E00E94B30283E490E063E070E040E014
S11307B050E00E94EC000E94AC0383E490E06C2FB4
S11307C070E00E94B30283E490E063E070E040E0F4
S11307D050E00E94EC000E94AC0389EF90E0019786
S11307E0F1F700C00000CF91089583E490E064E045
S11307F070E041E050E00E945B0083E490E065E03B
S113080070E041E050E00E945B0083E490E066E029
S113081070E041E050E00E945B0083E490E067E018
S113082070E041E050E00E945B0083E490E061E00E
S113083070E041E050E00E945B0083E490E063E0FC
S113084070E041E050E00E945B0083E490E062E0ED
S113085070E041E050E00E945B0083E490E062E0DD
S113086070E040E050E00E94EC0082E00E94C90386
S113087083EC99E00197F1F700C0000088E20E9440
S1130880C90389EF90E00197F1F700C000008CE004
S11308900E94C90389EF90E00197F1F700C00000BE
S11308A081E00E94C90383EC99E00197F1F700C04D
S11308B0000086E00E94C90389EF90E00197F1F7F8
S11308C000C000000895CF93C82F682F62956F7001
S11308D083E490E070E00E94B30283E490E063E07C
S11308E070E041E050E00E94EC000E94AC0383E41D
S11308F090E06C2F70E00E94B30283E490E063E028
S113090070E041E050E00E94EC000E94AC03CF9103
S11309100895CF93DF93EC018881882331F02196E9
S11309200E94630489918823D9F7DF91CF910895B8
S113093081E00E94C90383EC99E00197F1F700C0BC
S113094000000895813019F4862F815806C0823042
S113095019F4862F815401C080E80E94C90389EFED
S113096090E00197F1F700C0000008951F93CF9322
S1130970DF93C82F162FD42F622F41E00E945B0013
S11309808C2F612F41E00E945B008C2F6D2F41E082
S11309900E945B00DF91CF911F9108950F93CF9335
S11309A0DF93C82FD42F033449F0043418F40134EE
S11309B0C1F40EC0013661F0033699F48C2F41E086
S11309C00E94EC008C2F6D2F40E00E94EC0009C0C7
S11309D08C2F40E00E94EC008C2F6D2F41E00E9490
S11309E0EC00DF91CF910F910895CF93DF93C82F3F
S11309F0D42F40E00E94EC008C2F6D2F40E00E9429
S1130A00EC00DF91CF910895CF93DF930E945000C3
S1130A10BC0180E090E00E94F50520E030E040E277
S1130A2050E40E945B060E94C90583E0683E780793
S1130A30E8F588EE93E0861B970B6AE070E00E946D
S1130A40F206C62F6A30A8F481E067E00E94A2048F
S1130A508DE20E9463048C2F805D0E9463048FEDFD
S1130A600E94630483E40E94630480E20E9463049E
S1130A7057C0643608F054C081E067E00E94A204C5
S1130A808DE20E9463048C2F6AE00E94E606D92F4F
S1130A90805D0E9463048D2F805D0E9463048FED4E
S1130AA00E94630483E40E9463043AC0CB01885E1D
S1130AB093406AE070E00E94F206C62F6A30A8F400
S1130AC081E067E00E94A2048C2F805D0E94630491
S1130AD08FED0E94630483E40E94630480E20E9419
S1130AE0630480E20E9463041BC06436C8F481E09E
S1130AF067E00E94A2048C2F6AE00E94E606D92FC8
S1130B00805D0E9463048D2F805D0E9463048FEDDD
S1130B100E94630483E40E94630480E20E946304ED
S1130B208C2FDF91CF9108950E94F5030E94490014
S1130B3084E461E042E020E00E94B60484E466E0DC
S1130B4047E025E00E94B60480E690E00E94890414
S1130B500E9404058E3140F084E461E042E020E02C
S1130B6003E40E94CE04F4CF803158F084E466E0BC
S1130B7047E00E94F50484E461E042E00E94F50449
S1130B80E7CF84E466E047E025E003E40E94CE0476
S1130B90DFCF70D088F09F5790F0B92F9927B751C5
S1130BA0A0F0D1F0660F771F881F991F1AF0BA952D
S1130BB0C9F712C0B13081F077D0B1E0089574C0A4
S1130BC0672F782F8827B85F39F0B93FCCF3869523
S1130BD077956795B395D9F73EF490958095709580
S1130BE061957F4F8F4F9F4F0895E89409C097FBFD
S1130BF03EF490958095709561957F4F8F4F9F4FF0
S1130C009923A9F0F92F96E9BB279395F695879533
S1130C1077956795B795F111F8CFFAF4BB0F11F4F6
S1130C2060FF1BC06F5F7F4F8F4F9F4F16C088239D
S1130C3011F096E911C0772321F09EE8872F762FD3
S1130C4005C0662371F096E8862F70E060E02AF014
S1130C509A95660F771F881FDAF7880F9695879500
S1130C6097F9089557FD9058440F551F59F05F3F69
S1130C7071F04795880F97FB991F61F09F3F79F0BA
S1130C8087950895121613061406551FF2CF46953C
S1130C90F1DF08C0161617061806991FF1CF8695BE
S1130CA07105610508940895E894BB2766277727A2
S1130CB0CB0197F908950BD078C069D028F06ED095
S1130CC018F0952309F05AC05FC01124EECFCADF93
S1130CD0A0F3959FD1F3950F50E0551F629FF0014B
S1130CE0729FBB27F00DB11D639FAA27F00DB11DA4
S1130CF0AA1F649F6627B00DA11D661F829F22272D
S1130D00B00DA11D621F739FB00DA11D621F839FB3
S1130D10A00D611D221F749F3327A00D611D231F89
S1130D20849F600D211D822F762F6A2F11249F57D7
S1130D3050408AF0E1F088234AF0EE0FFF1FBB1FFA
S1130D40661F771F881F91505040A9F79E3F510599
S1130D5070F014C0AACF5F3FECF3983EDCF38695A5
S1130D6077956795B795F795E7959F5FC1F7FE2B44
S1130D70880F911D9695879597F9089597F99F6720
S1130D8080E870E060E008959FEF80EC089500240F
S1130D900A941616170618060906089500240A94DC
S1130DA012161306140605060895092E0394000C62
S1130DB011F4882352F0BB0F40F4BF2B11F460FFF1
S1130DC004C06F5F7F4F8F4F9F4F0895991B79E049
S1130DD004C0991F961708F0961B881F7A95C9F7C7
S1130DE080950895AA1BBB1B51E107C0AA1FBB1F16
S1130DF0A617B70710F0A61BB70B881F991F5A95A3
S1130E00A9F780959095BC01CD010895F894FFCF82
S10B0E1054656D703A200000E6
S9030000FC
